{
  "_format": "hh-sol-artifact-1",
  "contractName": "MedicalRecords",
  "sourceName": "contracts/MedicalRecords.sol",
  "abi": [
    {
      "inputs": [],
      "stateMutability": "nonpayable",
      "type": "constructor"
    },
    {
      "anonymous": false,
      "inputs": [
        {
          "indexed": false,
          "internalType": "string",
          "name": "recordHash",
          "type": "string"
        },
        {
          "indexed": true,
          "internalType": "address",
          "name": "patientWallet",
          "type": "address"
        },
        {
          "indexed": true,
          "internalType": "address",
          "name": "doctorWallet",
          "type": "address"
        }
      ],
      "name": "RecordAdded",
      "type": "event"
    },
    {
      "inputs": [
        {
          "internalType": "address",
          "name": "_doctor",
          "type": "address"
        }
      ],
      "name": "addDoctor",
      "outputs": [],
      "stateMutability": "nonpayable",
      "type": "function"
    },
    {
      "inputs": [
        {
          "internalType": "string",
          "name": "_recordHash",
          "type": "string"
        },
        {
          "internalType": "address",
          "name": "_patientWallet",
          "type": "address"
        },
        {
          "internalType": "string",
          "name": "_ipfsHash",
          "type": "string"
        }
      ],
      "name": "addRecord",
      "outputs": [],
      "stateMutability": "nonpayable",
      "type": "function"
    },
    {
      "inputs": [
        {
          "internalType": "address",
          "name": "_patientWallet",
          "type": "address"
        }
      ],
      "name": "getPatientRecords",
      "outputs": [
        {
          "internalType": "string[]",
          "name": "",
          "type": "string[]"
        }
      ],
      "stateMutability": "view",
      "type": "function"
    },
    {
      "inputs": [
        {
          "internalType": "string",
          "name": "_recordHash",
          "type": "string"
        }
      ],
      "name": "getRecordByHash",
      "outputs": [
        {
          "internalType": "string",
          "name": "",
          "type": "string"
        },
        {
          "internalType": "address",
          "name": "",
          "type": "address"
        },
        {
          "internalType": "address",
          "name": "",
          "type": "address"
        },
        {
          "internalType": "uint256",
          "name": "",
          "type": "uint256"
        },
        {
          "internalType": "string",
          "name": "",
          "type": "string"
        }
      ],
      "stateMutability": "view",
      "type": "function"
    },
    {
      "inputs": [
        {
          "internalType": "address",
          "name": "",
          "type": "address"
        }
      ],
      "name": "isDoctor",
      "outputs": [
        {
          "internalType": "bool",
          "name": "",
          "type": "bool"
        }
      ],
      "stateMutability": "view",
      "type": "function"
    },
    {
      "inputs": [
        {
          "internalType": "address",
          "name": "_doctor",
          "type": "address"
        }
      ],
      "name": "verifyDoctor",
      "outputs": [
        {
          "internalType": "bool",
          "name": "",
          "type": "bool"
        }
      ],
      "stateMutability": "view",
      "type": "function"
    }
  ],
  "bytecode": "0x6080604052348015600f57600080fd5b506001600260003373ffffffffffffffffffffffffffffffffffffffff1673ffffffffffffffffffffffffffffffffffffffff16815260200190815260200160002060006101000a81548160ff021916908315150217905550611323806100776000396000f3fe608060405234801561001057600080fd5b50600436106100625760003560e01c806318bd4847146100675780634780468f14610097578063996440c6146100b3578063a8de3a71146100e3578063cb8370b8146100ff578063d80cb05c14610133575b600080fd5b610081600480360381019061007c9190610957565b610163565b60405161008e9190610ad6565b60405180910390f35b6100b160048036038101906100ac9190610957565b61027b565b005b6100cd60048036038101906100c89190610957565b6102d6565b6040516100da9190610b13565b60405180910390f35b6100fd60048036038101906100f89190610c63565b6102f6565b005b61011960048036038101906101149190610cee565b61060b565b60405161012a959493929190610da9565b60405180910390f35b61014d60048036038101906101489190610957565b61088f565b60405161015a9190610b13565b60405180910390f35b6060600160008373ffffffffffffffffffffffffffffffffffffffff1673ffffffffffffffffffffffffffffffffffffffff168152602001908152602001600020805480602002602001604051908101604052809291908181526020016000905b828210156102705783829060005260206000200180546101e390610e39565b80601f016020809104026020016040519081016040528092919081815260200182805461020f90610e39565b801561025c5780601f106102315761010080835404028352916020019161025c565b820191906000526020600020905b81548152906001019060200180831161023f57829003601f168201915b5050505050815260200190600101906101c4565b505050509050919050565b6001600260008373ffffffffffffffffffffffffffffffffffffffff1673ffffffffffffffffffffffffffffffffffffffff16815260200190815260200160002060006101000a81548160ff02191690831515021790555050565b60026020528060005260406000206000915054906101000a900460ff1681565b600260003373ffffffffffffffffffffffffffffffffffffffff1673ffffffffffffffffffffffffffffffffffffffff16815260200190815260200160002060009054906101000a900460ff16610382576040517f08c379a000000000000000000000000000000000000000000000000000000000815260040161037990610edc565b60405180910390fd5b600080846040516103939190610f38565b908152602001604051809103902060000180546103af90610e39565b9050146103f1576040517f08c379a00000000000000000000000000000000000000000000000000000000081526004016103e890610fc1565b60405180910390fd5b60006040518060a001604052808581526020018473ffffffffffffffffffffffffffffffffffffffff1681526020013373ffffffffffffffffffffffffffffffffffffffff168152602001428152602001838152509050806000856040516104599190610f38565b9081526020016040518091039020600082015181600001908161047c919061118d565b5060208201518160010160006101000a81548173ffffffffffffffffffffffffffffffffffffffff021916908373ffffffffffffffffffffffffffffffffffffffff16021790555060408201518160020160006101000a81548173ffffffffffffffffffffffffffffffffffffffff021916908373ffffffffffffffffffffffffffffffffffffffff16021790555060608201518160030155608082015181600401908161052a919061118d565b50905050600160008473ffffffffffffffffffffffffffffffffffffffff1673ffffffffffffffffffffffffffffffffffffffff1681526020019081526020016000208490806001815401808255809150506001900390600052602060002001600090919091909150908161059f919061118d565b503373ffffffffffffffffffffffffffffffffffffffff168373ffffffffffffffffffffffffffffffffffffffff167f79439a93ba0b8067e556b3942a78ac58d991c58e2e23041c4e7aa1c446fc1188866040516105fd919061125f565b60405180910390a350505050565b606060008060006060600080876040516106259190610f38565b90815260200160405180910390206040518060a001604052908160008201805461064e90610e39565b80601f016020809104026020016040519081016040528092919081815260200182805461067a90610e39565b80156106c75780601f1061069c576101008083540402835291602001916106c7565b820191906000526020600020905b8154815290600101906020018083116106aa57829003601f168201915b505050505081526020016001820160009054906101000a900473ffffffffffffffffffffffffffffffffffffffff1673ffffffffffffffffffffffffffffffffffffffff1673ffffffffffffffffffffffffffffffffffffffff1681526020016002820160009054906101000a900473ffffffffffffffffffffffffffffffffffffffff1673ffffffffffffffffffffffffffffffffffffffff1673ffffffffffffffffffffffffffffffffffffffff1681526020016003820154815260200160048201805461079690610e39565b80601f01602080910402602001604051908101604052809291908181526020018280546107c290610e39565b801561080f5780601f106107e45761010080835404028352916020019161080f565b820191906000526020600020905b8154815290600101906020018083116107f257829003601f168201915b5050505050815250509050600081600001515103610862576040517f08c379a0000000000000000000000000000000000000000000000000000000008152600401610859906112cd565b60405180910390fd5b80600001518160200151826040015183606001518460800151955095509550955095505091939590929450565b6000600260008373ffffffffffffffffffffffffffffffffffffffff1673ffffffffffffffffffffffffffffffffffffffff16815260200190815260200160002060009054906101000a900460ff169050919050565b6000604051905090565b600080fd5b600080fd5b600073ffffffffffffffffffffffffffffffffffffffff82169050919050565b6000610924826108f9565b9050919050565b61093481610919565b811461093f57600080fd5b50565b6000813590506109518161092b565b92915050565b60006020828403121561096d5761096c6108ef565b5b600061097b84828501610942565b91505092915050565b600081519050919050565b600082825260208201905092915050565b6000819050602082019050919050565b600081519050919050565b600082825260208201905092915050565b60005b838110156109ea5780820151818401526020810190506109cf565b60008484015250505050565b6000601f19601f8301169050919050565b6000610a12826109b0565b610a1c81856109bb565b9350610a2c8185602086016109cc565b610a35816109f6565b840191505092915050565b6000610a4c8383610a07565b905092915050565b6000602082019050919050565b6000610a6c82610984565b610a76818561098f565b935083602082028501610a88856109a0565b8060005b85811015610ac45784840389528151610aa58582610a40565b9450610ab083610a54565b925060208a01995050600181019050610a8c565b50829750879550505050505092915050565b60006020820190508181036000830152610af08184610a61565b905092915050565b60008115159050919050565b610b0d81610af8565b82525050565b6000602082019050610b286000830184610b04565b92915050565b600080fd5b600080fd5b7f4e487b7100000000000000000000000000000000000000000000000000000000600052604160045260246000fd5b610b70826109f6565b810181811067ffffffffffffffff82111715610b8f57610b8e610b38565b5b80604052505050565b6000610ba26108e5565b9050610bae8282610b67565b919050565b600067ffffffffffffffff821115610bce57610bcd610b38565b5b610bd7826109f6565b9050602081019050919050565b82818337600083830152505050565b6000610c06610c0184610bb3565b610b98565b905082815260208101848484011115610c2257610c21610b33565b5b610c2d848285610be4565b509392505050565b600082601f830112610c4a57610c49610b2e565b5b8135610c5a848260208601610bf3565b91505092915050565b600080600060608486031215610c7c57610c7b6108ef565b5b600084013567ffffffffffffffff811115610c9a57610c996108f4565b5b610ca686828701610c35565b9350506020610cb786828701610942565b925050604084013567ffffffffffffffff811115610cd857610cd76108f4565b5b610ce486828701610c35565b9150509250925092565b600060208284031215610d0457610d036108ef565b5b600082013567ffffffffffffffff811115610d2257610d216108f4565b5b610d2e84828501610c35565b91505092915050565b600082825260208201905092915050565b6000610d53826109b0565b610d5d8185610d37565b9350610d6d8185602086016109cc565b610d76816109f6565b840191505092915050565b610d8a81610919565b82525050565b6000819050919050565b610da381610d90565b82525050565b600060a0820190508181036000830152610dc38188610d48565b9050610dd26020830187610d81565b610ddf6040830186610d81565b610dec6060830185610d9a565b8181036080830152610dfe8184610d48565b90509695505050505050565b7f4e487b7100000000000000000000000000000000000000000000000000000000600052602260045260246000fd5b60006002820490506001821680610e5157607f821691505b602082108103610e6457610e63610e0a565b5b50919050565b7f4f6e6c7920617574686f72697a656420646f63746f72732063616e207065726660008201527f6f726d207468697320616374696f6e0000000000000000000000000000000000602082015250565b6000610ec6602f83610d37565b9150610ed182610e6a565b604082019050919050565b60006020820190508181036000830152610ef581610eb9565b9050919050565b600081905092915050565b6000610f12826109b0565b610f1c8185610efc565b9350610f2c8185602086016109cc565b80840191505092915050565b6000610f448284610f07565b915081905092915050565b7f5265636f726420776974682074686973206861736820616c726561647920657860008201527f6973747300000000000000000000000000000000000000000000000000000000602082015250565b6000610fab602483610d37565b9150610fb682610f4f565b604082019050919050565b60006020820190508181036000830152610fda81610f9e565b9050919050565b60008190508160005260206000209050919050565b60006020601f8301049050919050565b600082821b905092915050565b6000600883026110437fffffffffffffffffffffffffffffffffffffffffffffffffffffffffffffffff82611006565b61104d8683611006565b95508019841693508086168417925050509392505050565b6000819050919050565b600061108a61108561108084610d90565b611065565b610d90565b9050919050565b6000819050919050565b6110a48361106f565b6110b86110b082611091565b848454611013565b825550505050565b600090565b6110cd6110c0565b6110d881848461109b565b505050565b5b818110156110fc576110f16000826110c5565b6001810190506110de565b5050565b601f8211156111415761111281610fe1565b61111b84610ff6565b8101602085101561112a578190505b61113e61113685610ff6565b8301826110dd565b50505b505050565b600082821c905092915050565b600061116460001984600802611146565b1980831691505092915050565b600061117d8383611153565b9150826002028217905092915050565b611196826109b0565b67ffffffffffffffff8111156111af576111ae610b38565b5b6111b98254610e39565b6111c4828285611100565b600060209050601f8311600181146111f757600084156111e5578287015190505b6111ef8582611171565b865550611257565b601f19841661120586610fe1565b60005b8281101561122d57848901518255600182019150602085019450602081019050611208565b8683101561124a5784890151611246601f891682611153565b8355505b6001600288020188555050505b505050505050565b600060208201905081810360008301526112798184610d48565b905092915050565b7f5265636f7264206e6f7420666f756e6400000000000000000000000000000000600082015250565b60006112b7601083610d37565b91506112c282611281565b602082019050919050565b600060208201905081810360008301526112e6816112aa565b905091905056fea2646970667358221220c009d131b9618368cc5ed0c43356b5b211c5993f1ad9ce3bca753b034d501e0b64736f6c634300081b0033",
  "linkReferences": {},
  "deployedLinkReferences": {}
}